:020000040800F2
:10000000FFFF012031770008FF020008E30200082B
:1000100085770008857700088577000800000000D4
:10002000000000000000000000000000E7020008DF
:1000300003030008000000005D030008F30200084D
:1000400085770008857700088577000885770008A0
:100050008577000885770008857700088577000890
:100060008577000885770008997D00088577000866
:100070008577000885770008857700088577000870
:100080008577000885770008857700088577000860
:100090008577000885770008857700088577000850
:1000A0008577000885770008857700088577000840
:1000B0008577000885770008857700088577000830
:1000C0008577000885770008857700088577000820
:1000D0008577000885770008857700088577000810
:1000E000A77D0008857700088577000885770008D8
:1000F00085770008857700088577000885770008F0
:1001000000000000857700088577000885770008E3
:100110000000000000000000F539000885770008A5
:1001200085770008857700088577000885770008BF
:1001300085770008857700088577000885770008AF
:10014000857700088577000885770008857700089F
:10015000857700088577000885770008857700088F
:100160008577000885770008000000000000000087
:10017000000000000000000000000000000000007F
:100180008577000885770008000000000000000067
:100190008577000885770008000000000000000057
:1001A000000000000000000000000000000000004F
:1001B0008577000800000000000000008577000837
:0401C0008577000837
:100200000348044B834202D0034B03B118477047A5
:10021000C8000020C8000020000000000548064972
:100220000B1AD90F01EBA301491002D0034B03B104
:1002300018477047C8000020C800002000000000D8
:1002400010B5064C237843B9FFF7DAFF044B13B11E
:100250000448AFF300800123237010BDC8000020C4
:1002600000000000008C000808B5044B1BB10449D5
:100270000448AFF30080BDE80840CFE7000000006D
:10028000CC000020008C00080000000000000000EE
:1002900072B61D481D4901F1040101604FF0E020D4
:1002A0001B49C0F8081D1B481949096801601A4814
:1002B000016841F0010101604FF0E0201749416100
:1002C0004FF0070101614FF00001C0F8181D4FF019
:1002D0007F41C0F81C1D1249C0F8201D7047FFF770
:1002E000FEBFFFF7FEBFFFF7FEBF00B55DF804EBF2
:1002F000704700B500F07CF85DF804EB7047FFF73D
:10030000FEBFFFF7FEBF00002C060020A009002062
:100310000000000830060020001000E0FFA50E00DD
:100320000000FF400000000000000000000000008E
:100330004FF000002A4A1060EFF3148020F0040010
:1003400080F3148862B64FF080504FF0E021C1F87E
:10035000040DBFF34F8FBFF36F8FFEE72148224A92
:100360004FF00003016891B10360EFF3098C2CE9B1
:10037000F00F1EF0100F01D12CED108A1B4C4CF821
:1003800004ED2568C1F808C00DB18D61236072B617
:100390001168B1B1016062B64F68144C8D6907F104
:1003A00001074F602560D1F808C05CF804EB1EF02F
:1003B000100F01D1BCEC108ABCE8F00F8CF3098857
:1003C000704772B61168016009B962B6F9E74FF07B
:1003D00000674FF0E028C8F8047D62B6DCE770479C
:1003E000C8060020340600203806002098070020A8
:1003F0002249086800F101000860214B1A683AB1EF
:10040000A2F101021A601AB91E4B4FF001001860E8
:100410001D490868026822B11C4B4FF001021A60A6
:1004200008E000F104001A4B1A68904201D1194B00
:1004300018680860134B1A6812B914490868D0B1DB
:100440002DE901401149086808B108F009FA0D4B7F
:100450001A6872B108F0B2F90F48016849B90F483B
:1004600001680F4A13680F484FF08052994200D03C
:100470000260BDE80140BFF34F8F7047CC060020FB
:1004800098070020D0060020DC060020E0060020AF
:10049000D8060020D4060020C8060020340600201C
:1004A0003806002004ED00E053B94AB9002908BF1E
:1004B00000281CBF4FF0FF314FF0FF3000F06EB945
:1004C000ADF1080C6DE904CE00F006F8DDF804E0AB
:1004D000DDE9022304B070472DE9F047089D04468A
:1004E0008C46002B40F083808A42174647D9B2FAE7
:1004F00082F242B1C2F1200024FA00F0914097400C
:1005000040EA010C94404FEA1748230CBCFBF8F674
:100510001FFA87FE08FB16C143EA014306FB0EF1F2
:10052000994209D9FB1806F1FF3080F019819942F0
:1005300040F21681023E3B445B1AA4B2B3FBF8F0D2
:1005400008FB103344EA034400FB0EFEA64509D91C
:100550003C1900F1FF3380F00581A64540F202818D
:1005600002383C4440EA0640A4EB0E0400261DB1CC
:10057000D4400023C5E900433146BDE8F08702B905
:10058000FFDEB2FA82F2002A50D1CB1B4FEA174E9F
:100590001FFA87F80126B3FBFEFC210C0EFB1C336F
:1005A00041EA034108FB0CF38B4207D979180CF19F
:1005B000FF3002D28B4200F2E9808446C91AA3B20E
:1005C000B1FBFEF00EFB101143EA014408FB00F8FA
:1005D000A04507D93C1900F1FF3302D2A04500F233
:1005E000D9801846A4EB080440EA0C40BFE78B42D0
:1005F00009D9002D00F0B1800026C5E90001304680
:100600003146BDE8F087B3FA83F6002E4AD18B421B
:1006100002D3824200F2B880841A61EB0301012008
:100620008C46002DA8D0C5E9004CA5E7C2F12003F7
:1006300020FA03F6974001FA02F04FEA174ED9402C
:100640003043030CB1FBFEF61FFA87F80EFB1611C0
:1006500043EA014306FB08F1994204FA02F409D97E
:10066000FB1806F1FF3C80F08D80994240F28A80B1
:10067000023E3B445B1A81B2B3FBFEF00EFB10332B
:1006800041EA034100FB08F38B4207D9791800F1D6
:10069000FF3C73D28B4271D902383944CB1A40EAFD
:1006A000064678E7C6F1200C03FA06F422FA0CF3AA
:1006B0001C4320FA0CF701FA06F34FEA144E21FA14
:1006C0000CF11F433B0CB1FBFEF91FFA84F80EFB43
:1006D000191143EA014109FB08FA8A4502FA06F2B8
:1006E00000FA06F308D9611809F1FF3048D28A45AB
:1006F00046D9A9F102092144A1EB0A01BFB2B1FB1D
:10070000FEF00EFB101147EA014700FB08F8B84560
:1007100007D9E71900F1FF312ED2B8452CD902389C
:10072000274440EA0940A7EB0807A0FB02894F4590
:10073000C64649461AD317D05DB1B3EB0E0267EB3C
:10074000010707FA0CFCF2404CEA0202F740C5E947
:10075000002700263146BDE8F0872E4628460BE7E5
:100760000646E9E61846FDE64345E5D2B8EB020E3B
:1007700069EB04010138DFE70846D2E760468DE700
:100780008146B9E7664675E730464AE7ACF1020CA8
:10079000394413E702383C4424E700BF704700BFE8
:1007A00070B50D4E0D4D761BB61006D000240134E9
:1007B00055F8043B9847A642F9D1094E094D761BDE
:1007C00008F01EFAB61006D00024013455F8043B98
:1007D0009847A642F9D170BDFC9B0008FC9B00081D
:1007E000009C0008FC9B0008844641EA000313F0CB
:1007F00003036DD1403A41D351F8043B40F8043B28
:1008000051F8043B40F8043B51F8043B40F8043BEA
:1008100051F8043B40F8043B51F8043B40F8043BDA
:1008200051F8043B40F8043B51F8043B40F8043BCA
:1008300051F8043B40F8043B51F8043B40F8043BBA
:1008400051F8043B40F8043B51F8043B40F8043BAA
:1008500051F8043B40F8043B51F8043B40F8043B9A
:1008600051F8043B40F8043B51F8043B40F8043B8A
:1008700051F8043B40F8043B403ABDD2303211D32A
:1008800051F8043B40F8043B51F8043B40F8043B6A
:1008900051F8043B40F8043B51F8043B40F8043B5A
:1008A000103AEDD20C3205D351F8043B40F8043B2A
:1008B000043AF9D2043208D0D2071CBF11F8013B28
:1008C00000F8013B01D30B8803806046704700BFEE
:1008D000082A13D38B078DD010F003038AD0C3F1FD
:1008E0000403D21ADB071CBF11F8013B00F8013BDF
:1008F00080D331F8023B20F8023B7BE7043AD9D39E
:10090000013A11F8013B00F8013BF9D20B78037072
:100910004B7843708B78837060467047F0B48607DD
:1009200046D0541E002A3CD0CAB2034602E014F15D
:10093000FF3436D303F8012B9D07F8D1032C29D9B6
:10094000CDB245EA05250F2C45EA054533D9A4F17A
:100950001006360903F1200707EB061703F1100212
:1009600042E9045542E902551032BA42F8D1721CEC
:1009700014F00C0F03EB021204F00F0613D0331F18
:1009800023F003030433134442F8045B9342FBD186
:1009900006F003042CB1C9B21C4403F8011B9C42AD
:1009A000FBD1F0BC704734461346002CF3D1F8E776
:1009B00014460346C2E71A462646E0E70EB410B5D1
:1009C000044683B008B1836963B106A80346019069
:1009D000059AA168204600F0CFFE03B0BDE81040A4
:1009E00003B0704700F0FEFAEFE700BF0FB410B598
:1009F0000B4B1C6882B00CB1A36963B105A8034618
:100A00000190049AA168204600F0B6FE02B0BDE84D
:100A1000104004B07047204600F0E4FAEEE700BF53
:100A20000000002038B5124B1C68A26B05461AB1B5
:100A30000023C2E9045338BD182000F079FB0246B8
:100A4000A06378B1012000210A4B1360C2E90401C0
:100A50000B230948094993810023C2E90101C2E936
:100A6000045338BD064B0748422100F0AFF900BFE0
:100A7000000000200E33CDAB34126DE6ECDE050035
:100A80002C9B0008449B000838B51A4B1C68A26BCD
:100A900092B1146918495369184801FB04F100FB2D
:100AA0000313A4FB0045611C1D4445F1000323F022
:100AB0000040C2E9041338BD182000F039FB02469B
:100AC000A06388B101200021C2E904010A480C4C4E
:100AD0000C4B0D490D4D146053600B24034695607B
:100AE0009481C2E9041338BD094B0A484E2100F035
:100AF0006DF900BF000000202DF451582D7F954C5A
:100B00000E33CDAB34126DE62E7F954CECDE050036
:100B10002C9B0008449B000808B430B5002A9CB008
:100B2000044635DB4FF4027302910691ADF81430A0
:100B300020A918D0013A0B460492079201911F9AFE
:100B40004FF6FF7502A9ADF8165000F097FC421C55
:100B500001DA8B232360029B00221A701CB0BDE8CF
:100B6000304001B070470B460492079201914FF656
:100B7000FF751F9AADF8165002A900F07FFC431CC8
:100B800001DA8B2323601CB0BDE8304001B0704710
:100B90008B2202604FF0FF30F5E700BF0CB430B598
:100BA000204B00299DB01C6837DB4FF40273029084
:100BB0000690ADF8143021A819D001390346209AC7
:100BC0000491079101904FF6FF7502A92046ADF8F8
:100BD000165000F053FC421C01DA8B232360029B69
:100BE00000221A701DB0BDE8304002B070470346C5
:100BF0000491079101904FF6FF75209AADF81650B9
:100C000002A9204600F03AFC431C01DA8B23236042
:100C10001DB0BDE8304002B070478B2323604FF019
:100C2000FF30F5E7000000200CB470B59CB020AC9C
:100C30000B4E54F8042B0291234606916FF00045A9
:100C400002A901940795CDE9045600F017FC029B18
:100C500000221A701CB0BDE8704002B0704700BF9F
:100C60000802FFFF0EB430B59CB01FAB0C4C0D4D0D
:100C700053F8042B0193014602910691206802A9C2
:100C80006FF000440794CDE9044500F0F7FB029BA8
:100C900000221A701CB0BDE8304003B0704700BF9E
:100CA000000000200802FFFF00000000000000001C
:100CB0000000000000000000000000000000000034
:100CC00090F800F06DE9024520F007016FF0000C8C
:100CD00010F0070491F820F040F049804FF0000434
:100CE0006FF00700D1E9002391F840F000F108000F
:100CF00082FA4CF2A4FA8CF283FA4CF3A2FA8CF347
:100D00004BBBD1E9022382FA4CF200F10800A4FAAD
:100D10008CF283FA4CF3A2FA8CF3E3B9D1E9042301
:100D200082FA4CF200F10800A4FA8CF283FA4CF338
:100D3000A2FA8CF37BB9D1E9062301F1200182FAF2
:100D40004CF200F10800A4FA8CF283FA4CF3A2FAF8
:100D50008CF3002BC6D0002A04BF04301A4612BA06
:100D6000B2FA82F2FDE8024500EBD2007047D1E909
:100D7000002304F00305C4F100004FEAC50514F098
:100D8000040F91F840F00CFA05F562EA05021CBF69
:100D900063EA050362464FF00004A9E710B50A4B69
:100DA00084B0694604460022186800F0ADF90028B6
:100DB000AEBFDDE900014FF0FF304FF0FF310CB165
:100DC000C4E9000104B010BD0000002000B50A4CC9
:100DD0002668054685B01C46F06852B1074B009165
:100DE000CDE9013206492B46224600F029F901F0EF
:100DF00063F9044B1A46F2E700000020789B0008D4
:100E0000889B0008849B000808B513460022FFF762
:100E1000DDFF00BF00207047014900F04BB900BF63
:100E2000192200080020704770B54A1E682505FB8E
:100E300002F50E4605F1740100F0E0F9044640B1F8
:100E400000210C30666005F168022160A060FFF7A8
:100E500065FD204670BD00BF1E4B70B51D68AB69B7
:100E6000064643B34835D5E90134013B05D51EE0BC
:100E7000013B5A1C04F1680419D0B4F90C20002A73
:100E8000F6D10025144B6566C4E90055A560C4E998
:100E90000455A5612946E360082204F15C00FFF7D0
:100EA0003DFDC4E90D55C4E91255204670BD2C68BE
:100EB0002CB12546D7E7284600F010F8D2E70421E8
:100EC0003046FFF7B1FF044628600028F1D10C231B
:100ED0003360EAE7548D00080100FFFF2DE9F84F69
:100EE000334B34491A68816290424FF00003C0E9E5
:100EF0001233036504BF012383610546FFF7ACFF8E
:100F000068602846FFF7A8FFA8602846FFF7A4FFFF
:100F10006E68E86000240423F3607466C6E9004448
:100F2000B460C6E90444B461214606F15C000822BD
:100F3000FFF7F4FCDFF888B0AF68DFF888A0DFF8CF
:100F40008890DFF888801C4BC6F83080C6E9086BB3
:100F5000C6E90AA92146FB6008227C66C7E900446D
:100F6000BC60C7E90444BC6107F15C00FFF7D6FC34
:100F7000EE68124BC7F83080C7E9087BC7E90AA9B9
:100F80002146F3607466C6E90044B460C6E90444CF
:100F9000B46106F15C000822FFF7C0FC0123C6E93A
:100FA000086BC6E90AA9C6F83080AB61BDE8F88FC6
:100FB000548D0008190E00080900010012000200FB
:100FC0003D1E0008651E0008A51E0008C51E00087D
:100FD000024B0349186800F06DB800BF548D00083B
:100FE00019220008836903B978E77047704700BF8A
:100FF000704700BF704700BF704700BF024B0349F6
:10100000186800F031B800BF00000020150E00087D
:10101000024B0349186800F027B800BF0000002009
:10102000250E00080CB400B583B004AB53F8042BB4
:10103000019300F0A1FB03B05DF804EB02B0704730
:101040000EB410B583B005AB064C53F8042B0193D6
:101050000146206800F090FB03B0BDE8104003B0EB
:10106000704700BF000000202DE9F04110F1480753
:101070001BD088460026D7E90154013D0FD4A3892F
:10108000012B05F1FF3506D9B4F90E3001332046A6
:1010900001D0C04706436B1C04F16804EFD13F68E0
:1010A000002FE8D13046BDE8F0813E463046BDE82D
:1010B000F08100BF2DE9F84310F148071FD08846A2
:1010C00006464FF00009D7E90154013D11D4A38928
:1010D000012B05F1FF3508D9B4F90E300133214653
:1010E000304602D0C04749EA00096B1C04F168048D
:1010F000EDD13F68002FE6D14846BDE8F883B946F8
:101100004846BDE8F88300BF38B50B46074C054696
:10111000114618460023236007F06EF8431C00D0E8
:1011200038BD2368002BFBD02B6038BD9C07002006
:10113000024B0146186800F061B800BF00000020B3
:10114000024B0146186800F003B800BF0000002001
:1011500000293CD038B551F8043C0C1F002BB8BF17
:10116000E418054601F064FB234B1A682AB1A24239
:101170000DD921686018824223D0626028461C6025
:10118000BDE8384001F056BBA34203D81A46536865
:10119000002BF9D111685018A04219D024D8216829
:1011A0006018834206D0636054602846BDE838402A
:1011B00001F040BBD3E90003014463602160546047
:1011C000F3E7D2E90002014462602160D6E770478C
:1011D00020680144501883421160E6D1D3E900032E
:1011E000014453601160E0E70C232B602846BDE802
:1011F000384001F01FBB00BFE4000020F8B5CD1C53
:1012000025F0030508350C2D38BF0C25002D0646AA
:1012100033DBA94231D82A4F01F00AFB3A6852B1B8
:1012200013685B1B04D43FE023685B1B29D522466F
:101230005468002CF8D1796800293BD02946304603
:1012400000F0EAFD431C28D0C41C24F00304A04293
:1012500005D0211A304600F0DFFD01301DD0256099
:10126000304601F0E7FA04F10B0020F00700231DDF
:10127000C21A01D01B1AA350F8BD0C223260002004
:10128000F8BD0B2B05D8A242636811D05360E7E785
:10129000144623601C442560E2E70C23304633608B
:1012A00001F0C8FA0020F8BD0B2BF1D853681446A2
:1012B0003B60D5E7304600F0AFFD7860BEE700BF89
:1012C000E40000202DE9F0478E681D46AE420C4632
:1012D0000B68174636D88046888910F4906F0ED177
:1012E000354618462A46394601F03AFAA26823687C
:1012F000961B2B44A66023600020BDE8F087D1E94F
:10130000041606EB4606A3EB010906EBD6766B1C2A
:1013100076104B44B342324684BF1E4632464305E4
:1013200012D511464046FFF769FF824600B34A4690
:101330002169FFF759FAA38923F4906343F08003EE
:10134000A38106E02E46CCE7404601F075FA8246BE
:1013500050B1A6EB09020AEB09036661C4F810A0BC
:101360002360A2602E46BCE721694046FFF7F0FEED
:101370000C23C8F80030A38943F04003A3814FF049
:10138000FF30BAE72DE9F04F936883B09046002B09
:101390006DD017688D6882460C460868083743E0B0
:1013A000A38913F4906F2ED0D4E9041505EB4505FD
:1013B000A0EB010B05EBD5750BEB06006D100130B2
:1013C000A8422A4684BF05462A465B0536D5114603
:1013D0005046FFF713FF00283AD05A462169019082
:1013E000FFF702FAA289019B22F4906242F0800288
:1013F000A281A5EB0B0203EB0B006561236120606A
:10140000A2603546B3465A46494601F0A9F9D8F8D4
:101410000830A2682068551B58449E1BA5602060B8
:10142000C8F808601EB3083757E90296AB46002E8D
:10143000F9D0AE42B4D23546B346E4E7504601F0A7
:10144000FBF903460028D4D121695046FFF780FEFE
:101450000C23CAF80030A389002243F040034FF068
:10146000FF30A381C8E9012203B0BDE8F08F00205E
:10147000C8F8040003B0BDE8F08F00BF2DE9F04FBD
:1014800090468A899FB014068B46029003D50A695C
:10149000002A00F00B81059330238DF8323098F844
:1014A00000308E4E002120220B918DF83120012733
:1014B000002B00F08480252B00F0F680454603E0E9
:1014C000252B00F0868025466B786C1C002BF7D10D
:1014D000B4EB080A73D04246534659460298FFF7C8
:1014E000F1FE01306BD00B9B6A7853440B93002ABA
:1014F00065D000234FF0FF3201340693CDE9083365
:101500008DF85B301C93079205E0069A07FA03F307
:1015100013432C4606932546052215F8011B304639
:1015200001F0CEF8AA46831B0028EED1069BD9060F
:1015300044BF20228DF85B2021781A0744BF2B225C
:101540008DF85B202A2948D1059A116804320029B8
:1015500005927EDB09916178A51C2E2956D0604C3E
:101560000322204601F0ACF8002868D0001B069B3F
:10157000402404FA00F00343069305F1010829789A
:1015800058488DF83010062201F09AF8002866D0ED
:10159000554B002B56D005AB00935A46534B02983F
:1015A00006A9AFF300808146B9F1FF3F07D00B9B3E
:1015B0004B440B9398F80030002B7FF47CAFBBF8C2
:1015C0000C305B0654BF0B984FF0FF301FB0BDE8E6
:1015D000F08FB4EB080A8CD07DE7A1F13002092A24
:1015E00088BFA246B9D8099B01E02C46013529786D
:1015F00003EB830302EB4303A1F13002092AAA465D
:10160000F3D92E2904F102050993A8D19AF8011003
:101610002A292ED1059B9AF802101A6807920433E2
:10162000002A05930AF103050AF1020337DB2C4C6B
:10163000032220469A4601F043F8002896D1A84696
:1016400055469CE7059B073323F0070308330593B2
:10165000ADE7494243F00203099106937BE705ABEE
:1016600000935A46214B029806A900F089FA814658
:101670009AE7A1F130020023092A079301D923E058
:101680005546697803EB830302EB4303A1F1300273
:10169000092A05F1010AF3D9023507935FE74FF0F4
:1016A000FF329A4607925AE7444622E740210393C5
:1016B000FFF7A4FD039BCBF80000CBF8100030B17E
:1016C0004022CBF81420E6E6AA46013547E7029A05
:1016D0000C2313604FF0FF3078E700BFB89B000881
:1016E000C09B0008C49B000800000000C512000851
:1016F0009368013B002B936011DA10B49469A34204
:1017000009DB0A2907D01368581C106019700846B5
:101710005DF8044B70475DF8044B00F0D7BB1368CD
:10172000581C106019700846704700BF9BB1F8B58F
:1017300013440F4606465D1E541E01E0AC4208D01D
:101740003A4614F8011F3046FFF7D2FF431CF5D18B
:10175000F8BD0020F8BD0020704700BF936810B5A9
:10176000144613B95360184610BD00F097FD0023CE
:10177000C4E9013310BD00BF2DE9F04F9FB08B4687
:1017800090461C46039018B18369002B00F0B78087
:10179000A24B9B4500F0B980A14B9B4500F0C78050
:1017A000A04B9B4504BF039BD3F80CB0BBF80C3097
:1017B000180740F1B280DBF81030002B00F0AD804C
:1017C00030238DF8323098F8003005940021202223
:1017D0000B918DF83120944E0127002B00F087806B
:1017E000252B00F01581454603E0252B00F0A38052
:1017F00025466B786C1C002BF7D1B4EB080A76D029
:101800004246534659460398FFF790FF01306ED089
:101810000B9B6A7853440B93002A68D000234FF047
:10182000FF3201340693CDE908338DF85B301C9309
:10183000079205E0069A07FA03F313432C46069332
:101840002546052215F8011B304600F039FFAA464F
:10185000831B0028EED1069BD90644BF20228DF8B9
:101860005B2021781A0744BF2B228DF85B202A29A0
:1018700066D1059A1168043200290592C0F29D8054
:1018800009916178A51C2E2973D0684C032220464B
:1018900000F016FF002800F08680001B069B402405
:1018A00004FA00F00343069305F101082978604823
:1018B0008DF83010062200F003FF002800F083802E
:1018C0005C4B002B72D005AB00935A465A4B0398E1
:1018D00006A9AFF300808146B9F1FF3F07D00B9B0B
:1018E0004B440B9398F80030002B7FF479AFBBF892
:1018F0000C305B0618D40B981FB0BDE8F08FFFF7D3
:1019000071FB464B9B457FF447AF039BD3F804B074
:10191000BBF80C3018073FF54EAF5946039800F05E
:101920004BFB00283FF44CAF4FF0FF30E4E7039B44
:10193000D3F808B03AE7B4EB080A3FF46FAF5FE7BB
:10194000A1F13002092A88BFA2469CD8099B01E078
:101950002C460135297803EB830302EB4303A1F105
:101960003002092AAA46F3D92E2904F10205099367
:101970008BD19AF801102A292FD1059B9AF80210D1
:101980001A6807920433002A05930AF103050AF145
:10199000020338DB254C032220469A4600F090FED5
:1019A00000287FF47AAFA84655467FE7059B0733AA
:1019B00023F007030833059391E7494243F00203FC
:1019C000099106935DE705AB00935A461A4B0398BD
:1019D00006A900F0D5F881467EE7A1F13002002388
:1019E000092A079301D915E05546697803EB83036B
:1019F00002EB4303A1F13002092A05F1010AF3D9F0
:101A00000235079341E74FF0FF329A4607923CE7D1
:101A1000444603E7AA46013537E700BF988D000822
:101A2000788D0008588D0008B89B0008C09B0008FE
:101A3000C49B0008000000002D17000810B4044CDF
:101A400013460A46014620685DF8044BFFF794BE32
:101A5000000000202DE9F0470C4691460A6989688C
:101A6000DDF820808A42B8BF0A46C9F8002094F801
:101A7000431006461F4611B10132C9F80020236801
:101A800099065CD5D9F800200232C9F800202368F5
:101A900013F0060F19461DD1E1688A1A002AD8BF33
:101AA000194617DD04F1190A002505E0E368D9F8A5
:101AB00000209B1AAB420CDD0123524639463046CA
:101AC000C047013005F10105F0D14FF0FF30BDE80E
:101AD000F087216894F84330003318BF01238A0649
:101AE0000AD5E1185A1C302081F84300224494F8AA
:101AF000451082F84310023304F143023946304660
:101B0000C0470130E1D02368A268216903F00603D1
:101B1000042B1DD08A4226DD4FF00009521A914451
:101B20001A34002501E04D451DDA012322463946CD
:101B30003046C047013005F10105F4D1C5E713F087
:101B4000060F13D094F84330003318BF0123D3E7B6
:101B5000D9F80000E3688A42A3EB000323EAE379A3
:101B6000DCDC002BDCDC0020BDE8F087E168D9F884
:101B700000208A1A002AD8BF194693DCAAE700BFC2
:101B80002DE9F0430C46097E85B06E2906461746BE
:101B90000C98984604F1430E6DD039D9732900F0A2
:101BA000F68044D9752900F00481782940F011812C
:101BB00078232268DFF858C284F84530016815069A
:101BC00051F8043B016040F1A180D10744BF42F0CD
:101BD00020022260002B00F093801022002184F864
:101BE00043106068A0600028C0F2C880216821F01E
:101BF00004012160002B40F0A380002840F0C08049
:101C00007546082A00F0AC80AEEB0503236141E085
:101C1000632900F0E5801AD8002938D0582940F00F
:101C2000D88084F845102268DFF8E8C1C6E76F293C
:101C300000F0BF80702940F0CC802268DFF8D0C16E
:101C400042F020027823226084F84530B6E7642908
:101C500002D0692940F0BD8022680368110603F1B3
:101C6000040557D5196805600B46002959DBDFF8D4
:101C7000A4C10A22B5E70368226861691D1D0560D9
:101C800015061B6802D4500600F1BD8019600023C0
:101C900075462361CDF800803B4603AA21463046B5
:101CA000FFF7D8FE013020D02A4623693946304656
:101CB000C047013019D022680398E368920719D50C
:101CC0001A1A002A16DD04F11909002504E0E36858
:101CD00003981A1AAA420DDD01234A4639463046B6
:101CE000C047013005F10105F1D14FF0FF3005B0DB
:101CF000BDE8F0839842B8BF184605B0BDE8F08350
:101D0000226822F020022260102267E7500648BFB6
:101D10009BB25AE75106A5D5B3F9003005601946C4
:101D2000A3E76168A1602D200029C3F1000384F8B6
:101D3000430002DB22F004022260DFF8D8C00A224E
:101D4000754600E00B46B3FBF2F102FB1130934203
:101D50001CF8000005F8010DF4D2082A7FF454AFF6
:101D60002368DB077FF550AF626823699A423FF72B
:101D70004BAF302305F8013C013D45E7002BDFD197
:101D80009CF8003084F8423004F1420539E70368DA
:101D90006268191D01601D680021284600F090FC52
:101DA000002832D0401B60602061002384F843305B
:101DB00070E72268036812F0800F03F104051AD05F
:101DC0001B6805606F290CBF08220A22DFF844C097
:101DD00004E7012384F84210236104F14205E4E79B
:101DE00003681A68191D0123016004F1420584F893
:101DF00042202361D9E712F0400F0DBF1B68056038
:101E00001B880560DEE7198041E76068CCE700BF0A
:101E1000E09B0008CC9B000838B5074C0023054622
:101E20000846236005F0FAFB431C00D038BD236848
:101E3000002BFBD02B6038BD9C07002010B50C4652
:101E4000B1F90E1000F01EFD002803DB636D0344A2
:101E5000636510BDA38923F48053A38110BD00BF27
:101E6000002070472DE9F0411646B1F90C201F46BD
:101E7000D3050C460546B1F90E1009D422F4805260
:101E8000A2813B4632462846BDE8F04100F07EB8CC
:101E90000022022300F086FBB4F90C20B4F90E10E6
:101EA000ECE700BF10B50C46B1F90E1000F07AFB5C
:101EB000A389421C0EBF23F4805343F48053606512
:101EC000A38110BDB1F90E1000F0FEB8F8B50D46B3
:101ED0001446064608B1836943B3254B9C422AD079
:101EE000244B9C4229D0244B9C4208BFF468A38910
:101EF000A269A2601A0722D5236903B32268616927
:101F0000D31AEDB299422F4629DD0133A168501C46
:101F10000139A1602060157062699A4216D0A389C8
:101F2000DB0701D50A2D11D03846F8BDFFF75AF866
:101F30000F4B9C42D4D17468D9E7B468D7E72146E7
:101F4000304600F039F838B92369D7E721463046E2
:101F500000F062F90028E7D04FF0FF37E4E72146B0
:101F6000304600F059F90028F6D122680123CDE768
:101F7000988D0008788D0008588D0008024B0A469D
:101F800001461868FFF7A2BF0000002070B50D469B
:101F9000084C114606461A4628460023236005F0E1
:101FA00074FF431C00D070BD2368002BFBD033604E
:101FB00070BD00BF9C0700203B4B70B51D680646F6
:101FC0000C460DB1AB69DBB1384B9C421ED0384B8F
:101FD0009C424AD0374B9C4208BFEC68B4F90C20B5
:101FE00093B2190718D5206908B313F001022CD059
:101FF000636900225B42A361A26060B3002070BDF0
:102000002846FEF7EFFF294B9C42E0D16C68B4F9FB
:102010000C2093B21907E6D4DD063CD5580726D428
:10202000206942F00803A3819BB20028DDD103F4AC
:102030002072B2F5007FD8D03046214600F0F6FA83
:10204000A389206913F00102D2D1990758BF6269B0
:10205000A2600028D2D1B4F90C301A06CFD543F0D3
:102060004003A3814FF0FF3070BDAC68B6E7616BF1
:1020700051B104F14403994204D03046FFF768F8A7
:10208000B4F90C200023636300232069636022F00D
:1020900024022060C5E742F04002092333604FF07C
:1020A000FF30A28170BD00BF00000020988D0008A5
:1020B000788D0008588D000808B5062000F07EFCD9
:1020C000012005F0FFFA00BF38B5074C0023054694
:1020D0000846236005F0C2FA431C00D038BD2368CF
:1020E000002BFBD02B6038BD9C0700208B891A0782
:1020F0002DE9F0410C46804641D44A68002A59DD5A
:10210000E66A002E53D00022D8F80050216AC8F8A1
:10211000002013F4805251D101234046B047431CA4
:102120005FD0A389E66A216A5F0705D56268636BA1
:10213000801A0BB1236CC01A024600234046B047F8
:10214000461C45D1D8F80030B4F90C20002B55D0EE
:102150001D2B01D0162B5AD123690022C4E900326D
:10216000616BC8F8005011B304F14403994202D0E6
:102170004046FEF7EDFF00206063BDE8F0810E6988
:10218000AEB10D680E6099070CBF63690023AD1BEB
:10219000A3600AE02B463246A76A216A4046B84748
:1021A0000028A5EB000506440ADD002DF2DC002026
:1021B000BDE8F0810A6C002AA2DCF8E7606DB3E7A5
:1021C000A38943F04003A3814FF0FF30BDE8F081C5
:1021D0002269A389226000226260DA04C0D56065AA
:1021E000BEE7D8F80030002B9BD01D2B0CD0162B4F
:1021F0000AD0A38943F04003A381D9E72169C4E948
:102200000013D304ACD5EAE7C8F80050CFE742F09A
:102210004002A281CCE700BF0B6923B310B504468E
:1022200082B008B18369BBB1104B994212D0104BF8
:10223000994216D00F4B994208BFE168B1F90C30B2
:102240002BB1204602B0BDE81040FFF74FBF002081
:1022500002B010BD6168F1E70191FEF7C3FE01997C
:10226000E2E7A168EAE70020704700BF988D000808
:10227000788D0008588D000820B1054B014618687C
:10228000FFF7CABF034B04491868FEF713BF00BF2E
:1022900000000020548D0008192200089368002BCC
:1022A00000F002812DE9F04FB1F90C309BB20C46E1
:1022B000190783B08246904635D522699AB313F048
:1022C0000202D8F800603DD00027D4F828B0D4F836
:1022D00020C0DFF8CC923D464D452B463A4628BFFC
:1022E0004B4661465046D5B1D847002840F3D280CE
:1022F000D8F808301B1A07442D1AC8F80830002BEC
:1023000000F0B780D4F820C0D4F828B04D452B4653
:102310003A4628BF4B4661465046002DE4D1D6E9E7
:1023200000750836D8E721465046FFF745FE0028DD
:1023300040F03081B4F90C30D8F800609BB213F053
:102340000202C1D113F0010940F0B080A7682068F3
:102350004D46002D54D09A0540F1BC80AF42BB469B
:1023600000F2E78013F4906F2FD0D4E9041707EB45
:102370004707A0EB010B07EBD777681C7F10584489
:10238000B8423A4684BF07463A465B0540F1E980C9
:1023900011465046FEF732FF002800F0F5805A46FD
:1023A00021690190FEF720FAA289019B22F4906234
:1023B00042F08002A281A7EB0B0203EB0B006761E6
:1023C00023612060A2602F46AB465A46494600F082
:1023D000C7F9A2682368D21B5B442F46A260236022
:1023E0000025D8F80830DB1BB944C8F80830002BAA
:1023F0003FD0B4F90C30A76820689BB2002DAAD159
:10240000D6E900950836A4E70BF1080353E9026703
:102410009B460833002FF9D03A460A21304600F097
:102420004FF9002853D00130A0EB06094B46D4E900
:1024300004122068BB4228BF3B46884203D9A568E6
:102440001544AB4219DC9A427DDC1346A56A216A29
:1024500032465046A847051E1CDDB9EB05096BD076
:102460000120D8F808305B1B2E447F1BC8F80830C9
:1024700013BB002003B0BDE8F08F31462A4600F0C0
:102480006FF923682B44236021465046FFF7C4FEB2
:102490000028E2D0B4F90C3043F040034FF0FF3095
:1024A000A38103B0BDE8F08F00207047334691460A
:1024B000104617464E469B46002FA5D00028B5D1A2
:1024C0003A460A21304600F0FBF80028ABD17B1CCD
:1024D0009946ACE72369834215D36169A94212D8B2
:1024E0002E4BA76A9D4294BF2B466FF000434A468D
:1024F00093FBF1F3504601FB03F3216AB847071E33
:10250000C8DDED1B6DE7AF4228BF2F463A4649466E
:1025100000F026F9A3682268DB1B3A44A36022601E
:10252000002BEED121465046FFF776FE0028E8D07A
:10253000B0E72F46AB4648E721465046FFF76CFE12
:1025400000288ED0A6E71A463146019300F008F91C
:10255000019BA1682268C91A1A44A16022601D4625
:102560007BE7504600F068F9034600287FF423AF6C
:1025700021695046FEF7ECFDB4F90C300C2223F033
:102580008003CAF8002087E70C23CAF80030B4F9AA
:102590000C3081E74FF0FF306CE700BFFEFFFF7F9C
:1025A00000FCFF7F70B50D46084C114606461A46E2
:1025B00028460023236005F078F8431C00D070BD46
:1025C0002368002BFBD0336070BD00BF9C07002048
:1025D00070B50C46B1F90E10002996B016461D468E
:1025E00013DB6A4600F022FA00280EDB019A02F49F
:1025F0007042A2F50052B2FA82F252094FF480639F
:1026000000202A60336016B070BDA38900221B062B
:102610002A6004D540230020336016B070BD4FF40B
:1026200080630020336016B070BD00BF8A899207B6
:102630000B4606D501F1470201211A60C3E90421C6
:10264000704770B582B001AB6A460C460646FFF78C
:10265000BFFF009905463046FEF7D0FDB4F90C30B7
:1026600070B11649B162019A0099206043F080036D
:10267000A381C4E904018AB92B43A38102B070BDD0
:102680009A05FBD423F0030304F1470243F002034D
:102690000121A3812260C4E90421EFE73046B4F9A7
:1026A0000E1000F0D7F910B9B4F90C30E4E7A389A3
:1026B00023F0030343F001031BB2DDE7190E00080A
:1026C00001F0FF01102A2BDB10F0070F08D010F8E3
:1026D000013B013A8B422DD010F0070F42B3F6D1E7
:1026E000F0B441EA012141EA014122F007047FF000
:1026F00000070023F0E80256083C85EA010586EA57
:10270000010685FA47F5A3FA87F586FA47F6A5FA92
:1027100087F68EB9EED1F0BC01F0FF0102F007029E
:1027200032B110F8013B013A83EA010313B1F8D149
:102730000020704701387047002D06BF354603382A
:10274000073815F0010F07D1013015F4807F02BF63
:10275000013015F4C03F0130F0BC0138704700BFB4
:102760008842F0B40DD98B1883420AD9841832B14B
:10277000224613F8014D02F8014D9942F9D1F0BCFF
:1027800070470F2A0ED80346541E002AF7D0013492
:102790000C44013B11F8012B03F8012FA142F9D1A0
:1027A000F0BC704740EA01039B073BD1A2F1100740
:1027B0003F0901F1200606EB071601F1100300F1B5
:1027C000100453F8105C44F8105C53F80C5C44F8A7
:1027D0000C5C53F8085C44F8085C53F8045C44F85B
:1027E000045C1033B34204F11004EAD17B1C1B01DA
:1027F00012F00C0F194402F00F05034415D0043DEC
:10280000AD0803EB850C1C1F0E4656F8047B44F8FC
:10281000047F6445F9D10135AD002B44294402F011
:102820000302B1E7541E0346B1E72A46ACE700BFF6
:10283000704700BF704700BF09B3F8B51446CAB16E
:1028400006460D4600F018F9A04202D32F4638463E
:10285000F8BD21463046FEF7D1FC07460028F6D0E9
:1028600022462946FDF7C0FF30462946FEF770FC98
:102870003846F8BD2746FEF76BFC3846F8BD1146D2
:10288000FEF7BCBC70B50D46084C114606461A460C
:1028900028460023236005F0DBFA431C00D070BDFE
:1028A0002368002BFBD0336070BD00BF9C07002065
:1028B00010B580210446FEF7A1FC606440B1031FFF
:1028C00000227C3043F8042F8342FBD1002010BD4E
:1028D0004FF0FF3010BD00BF436C0BB100207047BC
:1028E000E6E700BF1F2970B5054608D8436C1646B9
:1028F0000C464BB153F8240043F8246070BD1622F7
:1029000002604FF0FF3070BDFFF7D2FF08B96B6C6B
:10291000F0E74FF0FF3070BD1F2938B521D8426C69
:1029200005460C466AB152F8213053B1012B16D03E
:10293000591C10D00025204642F8245098472846BC
:1029400038BD284600F070F8224601462846BDE80A
:10295000384000F055B816230360012038BD002030
:1029600038BD162303604FF0FF3038BD1F2921D832
:1029700038B5436C05460C4683B153F8242003EB6D
:1029800084034AB1511C10D0012A0CD000252046E6
:102990001D609047284638BD012038BDFFF788FFED
:1029A00028B96B6CE9E7032038BD022038BD4FF031
:1029B000FF3038BD4FF0FF30704700BF024B01467B
:1029C0001868FFF7A9BF00BF00000020024B0A46AD
:1029D00001461868FFF786BF00000020034B186807
:1029E000436C0BB10020704762E700BF000000207D
:1029F000024B01461868FFF7B9BF00BF0000002076
:102A000038B50B46074C054611461846002323608F
:102A100004F064FE431C00D038BD2368002BFBD0BB
:102A20002B6038BD9C07002004F063BE38B50B4610
:102A3000074C0546114618460023236004F01AFE91
:102A4000431C00D038BD2368002BFBD02B6038BD61
:102A50009C07002038B5074C002305460846236034
:102A600004F018FE431C00D038BD2368002BFBD0B7
:102A70002B6038BD9C07002051F8043C181F002B28
:102A8000BCBF0B58C018704780B500AF0E4B1B6819
:102A90000D4A43F4007313600B4B1B680A4A43F45E
:102AA00080631360084B1B68074A43F4807313600C
:102AB000032002F0B6FE0F2000F02CFF04F063FEAE
:102AC0000023184680BD00BF003C024080B400AF28
:102AD000064B1B781A46064B1B681344044A1360C6
:102AE00000BFBD465DF8047B704700BF6800002052
:102AF000EC00002080B400AF034B1B681846BD46B5
:102B00005DF8047B704700BFEC00002080B584B006
:102B100000AF7860FFF7EEFFB8607B68FB60FB6892
:102B2000B3F1FF3F05D00A4B1B781A46FB681344EC
:102B3000FB6000BFFFF7DEFF0246BB68D31AFA68EE
:102B40009A42F7D800BF00BF1037BD4680BD00BF16
:102B50006800002080B489B000AF7860396000233D
:102B60007B6100233B610023BB610023FB6153E1D8
:102B70000122FB6902FA03F37B613B681B687A69F7
:102B800013403B613A697B699A4240F042813B685D
:102B90005B68012B0BD03B685B68022B07D03B685E
:102BA0005B68112B03D03B685B68122B30D17B68CC
:102BB0009B68BB61FB695B00032202FA03F3DB4302
:102BC000BA691340BB613B68DA68FB695B0002FAD3
:102BD00003F3BA691343BB617B68BA699A607B6887
:102BE0005B68BB610122FB6902FA03F3DB43BA694C
:102BF0001340BB613B685B681B0903F00102FB6982
:102C000002FA03F3BA691343BB617B68BA695A607D
:102C10007B68DB68BB61FB695B00032202FA03F39C
:102C2000DB43BA691340BB613B689A68FB695B0090
:102C300002FA03F3BA691343BB617B68BA69DA60CD
:102C40003B685B68022B03D03B685B68122B23D187
:102C5000FB69DA087B68083253F82230BB61FB69F4
:102C600003F007039B000F2202FA03F3DB43BA6968
:102C70001340BB613B681A69FB6903F007039B00C3
:102C800002FA03F3BA691343BB61FB69DA087B6894
:102C90000832B96943F822107B681B68BB61FB6985
:102CA0005B00032202FA03F3DB43BA691340BB6102
:102CB0003B685B6803F00302FB695B0002FA03F305
:102CC000BA691343BB617B68BA691A603B685B6889
:102CD00003F08053002B00F09C800023FB60544BDA
:102CE0005B6C534A43F480435364514B5B6C03F475
:102CF0008043FB60FB684F4AFB699B08023352F834
:102D00002330BB61FB6903F003039B000F2202FA2F
:102D100003F3DB43BA691340BB617B68464A9342C5
:102D200013D07B68454A93420DD07B68444A934256
:102D300007D07B68434A934201D1032306E007236F
:102D400004E0022302E0012300E00023FA6902F01C
:102D5000030292009340BA691343BB613549FB6992
:102D60009B080233BA6941F82320374B1B68BB61CB
:102D70003B69DB43BA691340BB613B685B6803F4A2
:102D80008033002B03D0BA693B691343BB612E4AE1
:102D9000BB6913602C4B5B68BB613B69DB43BA6961
:102DA0001340BB613B685B6803F40033002B03D026
:102DB000BA693B691343BB61234ABB695360224B29
:102DC0009B68BB613B69DB43BA691340BB613B68ED
:102DD0005B6803F48013002B03D0BA693B6913438B
:102DE000BB61194ABB699360174BDB68BB613B69E8
:102DF000DB43BA691340BB613B685B6803F40013B3
:102E0000002B03D0BA693B691343BB610E4ABB690F
:102E1000D360FB690133FB61FB690F2B7FF6A8AE22
:102E200000BF00BF2437BD465DF8047B704700BF7C
:102E30000038024000380140000002400004024017
:102E400000080240000C0240003C014080B582B006
:102E500000AF0346FB80084B5A69FB881340002BE8
:102E600006D0054AFB885361FB88184604F0A3FF8F
:102E700000BF0837BD4680BD003C014080B582B030
:102E800000AF78607B68002B01D101231DE07B68D7
:102E900093F83D30DBB2002B06D17B68002283F82B
:102EA0003C20786800F015F87B68022283F83D200A
:102EB0007B681A687B6804331946104600F0A0FA54
:102EC0007B68012283F83D20002318460837BD4661
:102ED00080BD80B483B000AF786000BF0C37BD46C2
:102EE0005DF8047B704780B485B000AF78607B6884
:102EF0001B68DA687B681B6842F00102DA607B6855
:102F00001B689B6803F00703FB60FB68062B07D078
:102F10007B681B681A687B681B6842F001021A60B4
:102F2000002318461437BD465DF8047B704780B512
:102F300082B000AF78607B68002B01D101231DE0D7
:102F40007B6893F83D30DBB2002B06D17B68002212
:102F500083F83C20786800F015F87B68022283F83B
:102F60003D207B681A687B6804331946104600F0E0
:102F700047FA7B68012283F83D2000231846083772
:102F8000BD4680BD80B483B000AF786000BF0C3711
:102F9000BD465DF8047B704780B584B000AF7860B3
:102FA00039607B681B6801223968184600F078FC9C
:102FB0007B681B68154A934204D07B681B68144ADF
:102FC000934201D1012300E00023002B07D07B684E
:102FD0001B685A6C7B681B6842F400425A647B6829
:102FE0001B689B6803F00703FB60FB68062B07D098
:102FF0007B681B681A687B681B6842F001021A60D4
:10300000002318461037BD4680BD00BF00000140B8
:103010000004014080B582B000AF78607B681B6817
:103020001B6903F00203022B22D17B681B68DB685B
:1030300003F00203022B1BD17B681B686FF00202B6
:103040001A617B6801221A777B681B689B6903F011
:103050000303002B03D0786800F0B4F905E078682A
:1030600000F0A6F9786800F0B7F97B6800221A77BB
:103070007B681B681B6903F00403042B22D17B6867
:103080001B68DB6803F00403042B1BD17B681B68FF
:103090006FF004021A617B6802221A777B681B6852
:1030A0009B6903F44073002B03D0786800F08AF921
:1030B00005E0786800F07CF9786800F08DF97B68AD
:1030C00000221A777B681B681B6903F00803082B32
:1030D00022D17B681B68DB6803F00803082B1BD137
:1030E0007B681B686FF008021A617B6804221A77FC
:1030F0007B681B68DB6903F00303002B03D078684F
:1031000000F060F905E0786800F052F9786800F0A6
:1031100063F97B6800221A777B681B681B6903F0E0
:103120001003102B22D17B681B68DB6803F01003AF
:10313000102B1BD17B681B686FF010021A617B6833
:1031400008221A777B681B68DB6903F44073002B45
:1031500003D0786800F036F905E0786800F028F9C7
:10316000786800F039F97B6800221A777B681B6861
:103170001B6903F00103012B0ED17B681B68DB6820
:1031800003F00103012B07D17B681B686FF001027C
:103190001A61786800F024FC7B681B681B6903F0E7
:1031A0008003802B0ED17B681B68DB6803F08003F3
:1031B000802B07D17B681B686FF080021A617868EA
:1031C00000F09DFB7B681B681B6903F04003402BEC
:1031D0000ED17B681B68DB6803F04003402B07D1EE
:1031E0007B681B686FF040021A61786800F0FEF897
:1031F0007B681B681B6903F02003202B0ED17B68C2
:103200001B68DB6803F02003202B07D17B681B6859
:103210006FF020021A61786800F067FB00BF083782
:10322000BD4680BD80B584B000AFF860B9607A60FB
:10323000FB6893F83C30012B01D10223B4E0FB681A
:10324000012283F83C20FB68022283F83D207B6842
:103250000C2B00F29F8001A252F823F0913200085B
:10326000953300089533000895330008D1320008E3
:103270009533000895330008953300081333000890
:103280009533000895330008953300085333000840
:10329000FB681B68B968184600F052F9FB681B68A8
:1032A0009A69FB681B6842F008029A61FB681B6818
:1032B0009A69FB681B6822F004029A61FB681B682C
:1032C0009969BB681A69FB681B680A439A6162E0E6
:1032D000FB681B68B968184600F0A2F9FB681B6818
:1032E0009A69FB681B6842F400629A61FB681B687C
:1032F0009A69FB681B6822F480629A61FB681B680C
:103300009969BB681B691A02FB681B680A439A61CA
:1033100041E0FB681B68B968184600F0F7F9FB68E4
:103320001B68DA69FB681B6842F00802DA61FB6817
:103330001B68DA69FB681B6822F00402DA61FB682B
:103340001B68D969BB681A69FB681B680A43DA61A4
:1033500021E0FB681B68B968184600F04BFAFB686F
:103360001B68DA69FB681B6842F40062DA61FB687B
:103370001B68DA69FB681B6822F48062DA61FB680B
:103380001B68D969BB681B691A02FB681B680A4382
:10339000DA6100E000BFFB68012283F83D20FB6892
:1033A000002283F83C20002318461037BD4680BD1C
:1033B00080B483B000AF786000BF0C37BD465DF8C5
:1033C000047B704780B483B000AF786000BF0C37D7
:1033D000BD465DF8047B704780B483B000AF786071
:1033E00000BF0C37BD465DF8047B704780B483B0E6
:1033F00000AF786000BF0C37BD465DF8047B7047B6
:1034000080B485B000AF786039607B681B68FB6072
:103410007B68404A934213D07B68B3F1804F0FD052
:103420007B683D4A93420BD07B683C4A934207D06D
:103430007B683B4A934203D07B683A4A934208D167
:10344000FB6823F07003FB603B685B68FA6813431A
:10345000FB607B682F4A93422BD07B68B3F1804F8F
:1034600027D07B682C4A934223D07B682B4A934217
:103470001FD07B682A4A93421BD07B68294A93421B
:1034800017D07B68284A934213D07B68274A93421F
:103490000FD07B68264A93420BD07B68254A934223
:1034A00007D07B68244A934203D07B68234A934227
:1034B00008D1FB6823F44073FB603B68DB68FA6863
:1034C0001343FB60FB6823F080023B685B69134396
:1034D000FB607B68FA681A603B689A687B68DA620E
:1034E0003B681A687B689A627B680A4A934203D0F9
:1034F0007B680C4A934203D13B681A697B681A6364
:103500007B6801225A6100BF1437BD465DF8047B19
:10351000704700BF00000140000400400008004068
:10352000000C004000040140004001400044014004
:103530000048014000180040001C004000200040EE
:1035400080B487B000AF786039607B681B6A23F075
:1035500001027B681A627B681B6A7B617B685B681F
:103560003B617B689B69FB60FB6823F07003FB6039
:10357000FB6823F00303FB603B681B68FA68134396
:10358000FB607B6923F002037B613B689B687A697F
:1035900013437B617B68204A934203D07B681F4AB8
:1035A00093420CD17B6923F008037B613B68DB68A5
:1035B0007A6913437B617B6923F004037B617B6839
:1035C000154A934203D07B68144A934211D13B6958
:1035D00023F480733B613B6923F400733B613B68D8
:1035E0005B693A6913433B613B689B693A691343E2
:1035F0003B617B683A695A607B68FA689A613B680C
:103600005A687B685A637B687A691A6200BF1C3704
:10361000BD465DF8047B7047000001400004014096
:1036200080B487B000AF786039607B681B6A23F094
:1036300010027B681A627B681B6A7B617B685B682F
:103640003B617B689B69FB60FB6823F4E043FB60A4
:10365000FB6823F44073FB603B681B681B02FA683D
:103660001343FB607B6923F020037B613B689B680D
:103670001B017A6913437B617B68224A934203D022
:103680007B68214A93420DD17B6923F080037B61E3
:103690003B68DB681B017A6913437B617B6923F01C
:1036A00040037B617B68174A934203D07B68164ACC
:1036B000934213D13B6923F480633B613B6923F45C
:1036C00000633B613B685B699B003A6913433B6164
:1036D0003B689B699B003A6913433B617B683A698D
:1036E0005A607B68FA689A613B685A687B689A639B
:1036F0007B687A691A6200BF1C37BD465DF8047B9F
:10370000704700BF000001400004014080B487B052
:1037100000AF786039607B681B6A23F480727B6835
:103720001A627B681B6A7B617B685B683B617B68B4
:10373000DB69FB60FB6823F07003FB60FB6823F030
:103740000303FB603B681B68FA681343FB607B69FB
:1037500023F400737B613B689B681B027A69134307
:103760007B617B68214A934203D07B68204A934265
:103770000DD17B6923F400637B613B68DB681B022E
:103780007A6913437B617B6923F480637B617B6887
:10379000164A934203D07B68154A934213D13B6982
:1037A00023F480533B613B6923F400533B613B6846
:1037B0005B691B013A6913433B613B689B691B01D1
:1037C0003A6913433B617B683A695A607B68FA68DF
:1037D000DA613B685A687B68DA637B687A691A62E7
:1037E00000BF1C37BD465DF8047B704700000140F8
:1037F0000004014080B487B000AF786039607B6816
:103800001B6A23F480527B681A627B681B6A3B61E7
:103810007B685B687B617B68DB69FB60FB6823F42A
:10382000E043FB60FB6823F44073FB603B681B686C
:103830001B02FA681343FB603B6923F400533B61AE
:103840003B689B681B033A6913433B617B68124AE0
:10385000934203D07B68114A934209D17B6923F4D8
:1038600080437B613B685B699B017A6913437B61A1
:103870007B687A695A607B68FA68DA613B685A68E3
:103880007B681A647B683A691A6200BF1C37BD46C0
:103890005DF8047B704700BF000001400004014058
:1038A00080B487B000AFF860B9607A60BB6803F09D
:1038B0001F03012202FA03F37B61FB681A6A7B692A
:1038C000DB431A40FB681A62FB681A6ABB6803F0A4
:1038D0001F03796801FA03F31A43FB681A6200BFF9
:1038E0001C37BD465DF8047B704780B483B000AFE1
:1038F000786000BF0C37BD465DF8047B704780B42C
:1039000083B000AF786000BF0C37BD465DF8047B24
:103910007047000080B58CB000AF78600023BB62B8
:1039200000237B6200227968362001F085FF362073
:1039300001F09EFF0023BB60254B1B6C244A43F023
:1039400010031364224B1B6C03F01003BB60BB68B5
:1039500007F10C0207F110031146184602F066F950
:10396000FB69BB62BB6A002B03D102F037F9F86236
:1039700004E002F033F903465B00FB62FB6A154A80
:10398000A2FB03239B0C013B7B62134B134A1A607F
:10399000114B40F2E732DA600F4A7B6A53600E4BFC
:1039A00000221A610C4B00229A600B4B00229A6194
:1039B0000948FFF763FA0346002B04D10648FFF7D6
:1039C00092FA034600E0012318463037BD4680BD19
:1039D0000038024083DE1B43F0000020001000404E
:1039E00080B582B000AF7860FFF770F800BF08378D
:1039F000BD4680BD80B500AF0248FFF70BFB00BF9E
:103A000080BD00BFF000002080B582B000AF7860BC
:103A10007B68002B01D101233FE07B6893F83930AC
:103A2000DBB2002B06D17B68002283F8382078684F
:103A300003F016FF7B68242283F839207B681B681B
:103A4000DA687B681B6822F40052DA60786800F05C
:103A5000B1F97B681B681A697B681B6822F4904285
:103A60001A617B681B685A697B681B6822F02A020E
:103A70005A617B681B68DA687B681B6842F40052F5
:103A8000DA607B680022DA637B68202283F83920C1
:103A90007B68202283F83A20002318460837BD4669
:103AA00080BD80B588B002AFF860B9603B60134656
:103AB000FB8000237B61FB6893F83930DBB2202B5D
:103AC00040F08380BB68002B02D0FB88002B01D123
:103AD00001237BE0FB6893F83830012B01D10223EE
:103AE00074E0FB68012283F83820FB680022DA6367
:103AF000FB68212283F83920FEF7FCFF7861FB6820
:103B0000FA889A84FB68FA88DA84FB68002283F8D2
:103B1000382042E0FB68DB8C9BB2013B9AB2FB6829
:103B2000DA84FB689B68B3F5805F22D13B68009321
:103B30007B6900228021F86800F0F2F80346002B30
:103B400001D0032342E0BB683B613B691B881A46F6
:103B5000FB681B68C2F308025A60FB681B69002BF4
:103B600003D1BB680233BB6017E0BB680133BB60A5
:103B700013E03B6800937B6900228021F86800F025
:103B8000CFF80346002B01D003231FE0BB685A1C6B
:103B9000BA601A78FB681B685A60FB68DB8C9BB2C2
:103BA000002BB7D13B6800937B6900224021F86865
:103BB00000F0B6F80346002B01D0032306E0FB68B3
:103BC000202283F83920002300E00223184618370A
:103BD000BD4680BD80B588B002AFF860B9603B607B
:103BE0001346FB8000237B61FB6893F83A30DBB21D
:103BF000202B40F09080BB68002B02D0FB88002B6C
:103C000001D1012388E0FB6893F83830012B01D102
:103C1000022381E0FB68012283F83820FB68002240
:103C2000DA63FB68222283F83A20FEF763FF7861AB
:103C3000FB68FA889A85FB68FA88DA85FB680022B7
:103C400083F838205CE0FB68DB8D9BB2013B9AB2C5
:103C5000FB68DA85FB689B68B3F5805F2BD13B6816
:103C600000937B6900222021F86800F059F8034690
:103C7000002B01D003234FE0BB683B61FB681B694D
:103C8000002B0CD1FB681B685B689BB2C3F3080375
:103C90009AB23B691A80BB680233BB6030E0FB68B4
:103CA0001B685B689BB2DBB29AB23B691A80BB6847
:103CB0000133BB6024E03B6800937B690022202134
:103CC000F86800F02DF80346002B01D0032323E011
:103CD000FB681B69002B08D1FB681B685968BB682F
:103CE0005A1CBA60CAB21A700AE0FB681B685B68AB
:103CF000DAB2BB68591CB96002F07F02D2B21A7006
:103D0000FB68DB8D9BB2002B9DD1FB68202283F8E2
:103D10003A20002300E0022318461837BD4680BD34
:103D200080B584B000AFF860B9603B601346FB71AA
:103D30002CE0BB69B3F1FF3F28D0BB69002B07D053
:103D4000FEF7D8FE02463B68D31ABA699A421DD2E2
:103D5000FB681B68DA68FB681B6822F4D072DA60C3
:103D6000FB681B685A69FB681B6822F001025A61F4
:103D7000FB68202283F83920FB68202283F83A2050
:103D8000FB68002283F8382003230FE0FB681B68E0
:103D90001A68BB681340BA689A420CBF012300231B
:103DA000DBB21A46FB799A42C3D00023184610377B
:103DB000BD4680BD2DE9F04FBDB000AFC7F8E400AF
:103DC000D7F8E4301B681B6923F44050D7F8E4307F
:103DD000D968D7F8E4301A6840EA01031361D7F8CC
:103DE000E4309A68D7F8E4301B691A43D7F8E43016
:103DF0005B691A43D7F8E430DB691343C7F8EC304A
:103E0000D7F8E4301B68DB6823F4164121F00C017D
:103E1000D7F8E4301A68D7F8EC300B43D360D7F802
:103E2000E4301B685B6923F44070D7F8E43099698B
:103E3000D7F8E4301A6840EA01035361D7F8E43058
:103E4000DB69B3F5004F40F0A581D7F8E4301A687C
:103E5000CD4B9A4206D0D7F8E4301A68CB4B9A4241
:103E600040F0CB8001F0CEFEC7F8E800D7F8E8308C
:103E70001C464FF0000522462B469118C7F88810C3
:103E80005B41C7F88C30D7E92223121945EB0303B5
:103E90004FF000004FF00001D90041EA5271D0000C
:103EA00002460B461119C7F8D8106B41C7F8DC3031
:103EB000D7F8E4305B681A464FF000039118C7F852
:103EC00080105B41C7F88430D7E92023D7E9360159
:103ED000FCF7EAFA02460B46AD4BA3FB02235B0953
:103EE0001E01D7F8E8301C464FF0000522462B464D
:103EF0009118B9675B41FB67D7E91E23121945EB9F
:103F000003034FF000004FF00001D90041EA527165
:103F1000D00002460B461119C7F8D0106B41C7F804
:103F2000D430D7F8E4305B681A464FF0000391189C
:103F300039675B417B67D7E91C23D7E93401FCF77C
:103F4000B3FA02460B46924BA3FB02135B096421B2
:103F500001FB03F3D31ADB0032338D4AA2FB0323A8
:103F60005B095B0003F4F8731E44D7F8E830184689
:103F70004FF0000102460B469418BC665B41FB669D
:103F8000D7E91A23121841EB03034FF000044FF056
:103F90000005DD0045EA5275D40022462B46141870
:103FA000C7F8C8404B41C7F8CC30D7F8E4305B685D
:103FB0001A464FF00003911839665B417B66D7E9DA
:103FC0001823D7E93201FCF76FFA02460B46704B13
:103FD000A3FB02135B09642101FB03F3D31ADB008B
:103FE00032336B4AA2FB03235B0903F00702D7F8C5
:103FF000E4301B6832449A606DE201F0EFFDC7F8CF
:10400000E800D7F8E8301C464FF0000522462B4662
:104010009118B9655B41FB65D7E91623121945EB89
:1040200003034FF000004FF00001D90041EA527144
:10403000D00002460B461119C7F8C0106B41C7F8F3
:10404000C430D7F8E4305B681A464FF0000391188B
:1040500039655B417B65D7E91423D7E93001FCF76B
:1040600023FA02460B464A4BA3FB02235B091E01BF
:10407000D7F8E8301C464FF0000522462B46911831
:10408000B9645B41FB64D7E91223121945EB0303C2
:104090004FF000004FF00001D90041EA5271D0000A
:1040A00002460B461119C7F8B8106B41C7F8BC306F
:1040B000D7F8E4305B681A464FF000039118396472
:1040C0005B417B64D7E91023D7E92E01FCF7ECF9BB
:1040D00002460B462E4BA3FB02135B09642101FB36
:1040E00003F3D31ADB003233294AA2FB03235B0913
:1040F0005B0003F4F8731E44D7F8E83018464FF01D
:10410000000102460B469418BC635B41FB63D7E990
:104110000E23121841EB03034FF000044FF000058B
:10412000DD0045EA5275D40022462B461418C7F824
:10413000B0404B41C7F8B430D7F8E4305B681A465A
:104140004FF00003911839635B417B63D7E90C237F
:10415000D7E92C01FCF7A8F902460B460C4BA3FB50
:1041600002135B09642101FB03F3D31ADB00323332
:10417000074AA2FB03235B0903F00702D7F8E430E8
:104180001B6832449A60A6E100100140001401400F
:104190001F85EB51D7F8E4301A68D14B9A4206D00C
:1041A000D7F8E4301A68CF4B9A4240F0CA8001F049
:1041B00029FDC7F8E800D7F8E8301C464FF00005A5
:1041C00022462B469118B9625B41FB62D7E90A236C
:1041D000121945EB03034FF000004FF00001D90026
:1041E00041EA5271D00002460B4612EB040A43EB3F
:1041F000050BD7F8E4305B6818464FF000014FF02C
:1042000000024FF000038B0043EA90738200504697
:104210005946FCF749F902460B46B34BA3FB022370
:104220005B091E01D7F8E83018464FF0000102463E
:104230000B4694183C625B417B62D7E90823121855
:1042400041EB03034FF000044FF00005DD0045EAA9
:104250005275D40022462B461418C7F8A8404B418B
:10426000C7F8AC30D7F8E4305B6818464FF000016F
:104270004FF000024FF000038B0043EA907382007E
:10428000D7E92A01FCF710F902460B46964BA3FB2F
:1042900002135B09642101FB03F3D31A1B013233C0
:1042A000914AA2FB03235B0903F0F0031E44D7F8F5
:1042B000E83018464FF0000102460B469418BC61E6
:1042C0005B41FB61D7E90623121841EB03034FF072
:1042D00000044FF00005DD0045EA5275D400224687
:1042E0002B461418C7F8A0404B41C7F8A430D7F8A4
:1042F000E4305B6818464FF000014FF000024FF0C9
:1043000000038B0043EA90738200D7E92801FCF791
:10431000CBF802460B46744BA3FB02135B096421E6
:1043200001FB03F3D31A1B0132336F4AA2FB0323B1
:104330005B0903F00F02D7F8E4301B6832449A603F
:10434000C9E001F04BFCC7F8E800D7F8E8301C469C
:104350004FF0000522462B46911839615B417B6185
:10436000D7E90423121945EB03034FF000004FF087
:104370000001D90041EA5271D00002460B4612EB0F
:10438000040843EB0509D7F8E4305B6818464FF0A2
:1043900000014FF000024FF000038B0043EA9073DE
:1043A000820040464946FCF77FF802460B464E4BDA
:1043B000A3FB02235B091E01D7F8E83018464FF033
:1043C000000102460B469418BC605B41FB60D7E9D4
:1043D0000223121841EB03034FF000044FF00005D5
:1043E000DD0045EA5275D40022462B461418C7F862
:1043F00098404B41C7F89C30D7F8E4305B681846CA
:104400004FF000014FF000024FF000038B0043EA31
:1044100090738200D7E92601FCF746F802460B4666
:10442000314BA3FB02135B09642101FB03F3D31A95
:104430001B0132332C4AA2FB03235B0903F0F00378
:104440001E44D7F8E83018464FF0000102460B46EC
:1044500094183C605B417B60D7E90023121841EB64
:1044600003034FF000044FF00005DD0045EA5275EC
:10447000D40022462B461418C7F890404B41C7F889
:104480009430D7F8E4305B6818464FF000014FF0E5
:1044900000024FF000038B0043EA90738200D7E9DB
:1044A0002401FCF701F802460B460F4BA3FB021355
:1044B0005B09642101FB03F3D31A1B0132330A4A5F
:1044C000A2FB03235B0903F00F02D7F8E4301B685B
:1044D00032449A60FFE700BFF437BD46BDE8F08F75
:1044E00000100140001401401F85EB5180B584B0DD
:1044F00000AF78607B68002B01D101232BE17B6842
:1045000093F83D30DBB2002B06D17B68002283F8A4
:104510003C20786803F052F97B68242283F83D2020
:104520007B681B681A687B681B6822F001021A60AE
:104530007B681B681A687B681B6842F400421A603B
:104540007B681B681A687B681B6822F400421A604B
:1045500001F044FBF8607B685B68814A934207D8AE
:10456000FB68804A934294BF01230023DBB206E03C
:10457000FB687D4A934294BF01230023DBB2002BEA
:1045800001D00123E7E0FB68784AA2FB03239B0CE0
:10459000BB607B681B685B6823F03F017B681B681E
:1045A000BA680A435A607B681B681B6A23F03F01A4
:1045B0007B685B686A4A934202D8BB68013309E0B2
:1045C000BB684FF4967202FB03F3694AA2FB032314
:1045D0009B0901337A6812680B4313627B681B687E
:1045E000DB6923F44F4222F0FF027B685B685C4981
:1045F0008B4219D8FB68591E7B685B685B00B1FB76
:10460000F3F3591C40F6FC730B40002B0AD0FB68F7
:10461000591E7B685B685B00B1FBF3F30133C3F3A6
:104620000B0351E004234FE07B689B68002B11D102
:10463000FB68581E7B6859680B465B000B44B0FB57
:10464000F3F30133C3F30B03002B0CBF012300234F
:10465000DBB212E0FB68581E7B6859680B469B0072
:104660000B4499000B44B0FBF3F30133C3F30B038A
:10467000002B0CBF01230023DBB2002B01D0012350
:1046800022E07B689B68002B0ED1FB68581E7B687C
:1046900059680B465B000B44B0FBF3F30133C3F3E3
:1046A0000B0343F400430FE0FB68581E7B68596816
:1046B0000B469B000B4499000B44B0FBF3F3013312
:1046C000C3F30B0343F44043796809681343CB6198
:1046D0007B681B681B6823F0C0017B68DA697B6814
:1046E0001B6A1A437B681B680A431A607B681B6855
:1046F0009B6823F4034323F0FF037A6811697A6807
:10470000D26811437A6812680B4393607B681B6818
:10471000DB6823F0FF017B685A697B689B691A4359
:104720007B681B680A43DA607B681B681A687B68D1
:104730001B6842F001021A607B6800221A647B68E1
:10474000202283F83D207B6800221A637B680022C8
:1047500083F83E20002318461037BD4680BD00BFB9
:10476000A08601007F841E00FF083D0083DE1B43FE
:10477000D34D621080B588B002AFF860084611468C
:104780001A4603467B810B463B811346FB80FEF7AE
:10479000B1F97861FB6893F83D30DBB2202B40F033
:1047A000D9807B690093192301226D49F86800F0D4
:1047B000ADFD0346002B01D00223CCE0FB6893F84B
:1047C0003C30012B01D10223C5E0FB68012283F8B4
:1047D0003C20FB681B681B6803F00103012B07D01A
:1047E000FB681B681A68FB681B6842F001021A60CC
:1047F000FB681B681A68FB681B6822F400621A6079
:10480000FB68212283F83D20FB68402283F83E208C
:10481000FB6800221A64FB683A6A5A62FB68BA8C29
:104820005A85FB685B8D9AB2FB681A85FB684D4A16
:10483000DA62F8883A8979897B690193BB6A0093C7
:104840000346F86800F0E4FB0346002B52D0012336
:1048500081E07A69B96AF86800F02EFE0346002B01
:104860000DD0FB681B6C042B07D1FB681B681A6812
:10487000FB681B6842F400721A6001236BE0FB685E
:104880005B6A1A78FB681B681A61FB685B6A5A1CD2
:10489000FB685A62FB681B8D013B9AB2FB681A8564
:1048A000FB685B8D9BB2013B9AB2FB685A85FB6843
:1048B0001B685B6903F00403042B1BD1FB681B8D91
:1048C000002B17D0FB685B6A1A78FB681B681A61BB
:1048D000FB685B6A5A1CFB685A62FB681B8D013BD4
:1048E0009AB2FB681A85FB685B8D9BB2013B9AB25A
:1048F000FB685A85FB681B8D002BAAD17A69B96ABF
:10490000F86800F01AFE0346002B0DD0FB681B6C04
:10491000042B07D1FB681B681A68FB681B6842F40C
:1049200000721A60012316E0FB681B681A68FB68B6
:104930001B6842F400721A60FB68202283F83D2055
:10494000FB68002283F83E20FB68002283F83C20AD
:10495000002300E0022318461837BD4680BD00BF83
:10496000020010000000FFFF80B58CB002AFF860BD
:10497000084611461A4603467B810B463B81134687
:10498000FB80FEF7B7F87862FB6893F83D30DBB246
:10499000202B40F008827B6A0093192301227B4977
:1049A000F86800F0B3FC0346002B01D00223FBE1C2
:1049B000FB6893F83C30012B01D10223F4E1FB6842
:1049C000012283F83C20FB681B681B6803F001038D
:1049D000012B07D0FB681B681A68FB681B6842F054
:1049E00001021A60FB681B681A68FB681B6822F4E6
:1049F00000621A60FB68222283F83D20FB68402297
:104A000083F83E20FB6800221A64FB683A6B5A6206
:104A1000FB68BA8E5A85FB685B8D9AB2FB681A8573
:104A2000FB685B4ADA62F8883A8979897B6A019384
:104A3000BB6B00930346F86800F080FB0346002B35
:104A400001D00123B0E1FB681B8D002B13D10023A3
:104A50003B62FB681B685B693B62FB681B689B6988
:104A60003B623B6AFB681B681A68FB681B6842F480
:104A700000721A6084E1FB681B8D012B1BD1FB685F
:104A80001B681A68FB681B6822F480621A600023A6
:104A9000FB61FB681B685B69FB61FB681B689B69CA
:104AA000FB61FB69FB681B681A68FB681B6842F4C2
:104AB00000721A6064E1FB681B8D022B1BD1FB683E
:104AC0001B681A68FB681B6822F480621A60FB6826
:104AD0001B681A68FB681B6842F400621A600023B6
:104AE000BB61FB681B685B69BB61FB681B689B69FA
:104AF000BB61BB6944E100237B61FB681B685B69A8
:104B00007B61FB681B689B697B617B6938E1FB68A3
:104B10001B8D032B00F2F180FB681B8D012B23D131
:104B20007A6AB96BF86800F049FD0346002B01D0A2
:104B3000012339E1FB681B681A69FB685B6AD2B222
:104B40001A70FB685B6A5A1CFB685A62FB681B8D13
:104B5000013B9AB2FB681A85FB685B8D9BB2013BF7
:104B60009AB2FB685A850BE1FB681B8D022B4ED174
:104B70007B6A0093BB6B00220649F86800F0C6FB15
:104B80000346002B08D001230EE100BF02001000F5
:104B90000000FFFF04000100FB681B681A68FB6847
:104BA0001B6842F400721A60FB681B681A69FB6894
:104BB0005B6AD2B21A70FB685B6A5A1CFB685A6265
:104BC000FB681B8D013B9AB2FB681A85FB685B8D05
:104BD0009BB2013B9AB2FB685A85FB681B681A6955
:104BE000FB685B6AD2B21A70FB685B6A5A1CFB688E
:104BF0005A62FB681B8D013B9AB2FB681A85FB6801
:104C00005B8D9BB2013B9AB2FB685A85B8E07B6A28
:104C10000093BB6B00226649F86800F077FB0346FF
:104C2000002B01D00123BFE0FB681B681A68FB68FA
:104C30001B6822F480621A60FB681B681A69FB68B3
:104C40005B6AD2B21A70FB685B6A5A1CFB685A62D4
:104C5000FB681B8D013B9AB2FB681A85FB685B8D74
:104C60009BB2013B9AB2FB685A857B6A0093BB6B8F
:104C700000224F49F86800F049FB0346002B01D0A1
:104C8000012391E0FB681B681A68FB681B6842F40B
:104C900000721A60FB681B681A69FB685B6AD2B213
:104CA0001A70FB685B6A5A1CFB685A62FB681B8DB2
:104CB000013B9AB2FB681A85FB685B8D9BB2013B96
:104CC0009AB2FB685A85FB681B681A69FB685B6AC5
:104CD000D2B21A70FB685B6A5A1CFB685A62FB68A6
:104CE0001B8D013B9AB2FB681A85FB685B8D9BB2FA
:104CF000013B9AB2FB685A8542E07A6AB96BF86860
:104D000000F05CFC0346002B01D001234CE0FB6863
:104D10001B681A69FB685B6AD2B21A70FB685B6A2F
:104D20005A1CFB685A62FB681B8D013B9AB2FB68F8
:104D30001A85FB685B8D9BB2013B9AB2FB685A8572
:104D4000FB681B685B6903F00403042B18D1FB6844
:104D50001B681A69FB685B6AD2B21A70FB685B6AEF
:104D60005A1CFB685A62FB681B8D013B9AB2FB68B8
:104D70001A85FB685B8D9BB2013B9AB2FB685A8532
:104D8000FB681B8D002B7FF4C2AEFB68202283F8EA
:104D90003D20FB68002283F83E20FB68002283F858
:104DA0003C20002300E0022318462837BD4680BD82
:104DB0000400010080B58AB002AFF8607A603B6001
:104DC0000B467B81FDF796FEF8610123BB61FB6812
:104DD00093F83D30DBB2202B40F01181FB6900934A
:104DE000192301228849F86800F090FA0346002B45
:104DF00001D0022304E1FB6893F83C30012B01D180
:104E00000223FDE0FB68012283F83C20FB681B685D
:104E10001B6803F00103012B07D0FB681B681A68AD
:104E2000FB681B6842F001021A60FB681B681A6885
:104E3000FB681B6822F400621A60FB68242283F876
:104E40003D20FB6800221A64FB68704ADA62FB6846
:104E50001B681A68FB681B6842F480721A60FB6961
:104E600000933B6800224FF00111F86800F04EFA01
:104E70000346002B0DD0FB681B681B6803F480738E
:104E8000B3F5807F03D1FB684FF400721A640323EB
:104E9000B6E07B89DBB21A46FB681B6802F0FE02B3
:104EA0001A61FDF727FEF861FB681B685B6903F078
:104EB0000203022B0CBF01230023DBB2FB75FB684E
:104EC0001B685B6903F48063B3F5806F0CBF01233B
:104ED0000023DBB2BB7525E0FDF70CFE0246FB6943
:104EE000D31A3A689A4202D33B68002B03D1FB687D
:104EF000A02283F83D20FB681B685B6903F0020376
:104F0000022B0CBF01230023DBB2FB75FB681B687F
:104F10005B6903F48063B3F5806F0CBF012300234A
:104F2000DBB2BB75FB6893F83D30DBB2A02B05D03C
:104F3000FB7D002B02D1BB7D002BCDD0FB68202256
:104F400083F83D20FB681B685B6903F00203022BBA
:104F500029D1FB681B681A68FB681B6842F4007261
:104F60001A6000233B61FB681B685B693B61FB685F
:104F70001B689B693B613B69FB6900931923012214
:104F80002149F86800F0C2F90346002B01D0012343
:104F900036E0FB68202283F83D20FB68002283F87E
:104FA0003C2000232CE0FB681B681A68FB681B6828
:104FB00042F400721A60FB681B686FF480625A61E9
:104FC000FB690093192301220F49F86800F09EF94C
:104FD0000346002B01D0012312E0BB690133BB6102
:104FE000BA697B689A42FFF432AFFB68202283F8EB
:104FF0003D20FB68002283F83C20012300E00223CF
:1050000018462037BD4680BD020010000000FFFF9B
:1050100080B588B002AFF860084611461A460346CC
:105020007B810B463B811346FB80FB681B681A683B
:10503000FB681B6842F480721A607B6A00933B6ACB
:1050400000224FF00111F86800F060F90346002BD0
:105050000DD0FB681B681B6803F48073B3F5807F79
:1050600003D1FB684FF400721A6403235FE07B896D
:10507000DBB21A46FB681B6802F0FE021A617B6A0B
:105080003A6A2D49F86800F098F90346002B01D0E0
:1050900001234CE000237B61FB681B685B697B613B
:1050A000FB681B689B697B617B697A6A396AF8686F
:1050B00000F002FA0346002B0DD0FB681B6C042B9A
:1050C00007D1FB681B681A68FB681B6842F4007212
:1050D0001A6001232BE0FB88012B05D13B89DAB252
:1050E000FB681B681A6121E03B891B0A9BB2DAB29C
:1050F000FB681B681A617A6A396AF86800F0DCF9A3
:105100000346002B0DD0FB681B6C042B07D1FB68FA
:105110001B681A68FB681B6842F400721A6001235E
:1051200005E03B89DAB2FB681B681A610023184668
:105130001837BD4680BD00BF0200010080B588B0B1
:1051400002AFF860084611461A4603467B810B46BB
:105150003B811346FB80FB681B681A68FB681B6871
:1051600042F480621A60FB681B681A68FB681B685F
:1051700042F480721A607B6A00933B6A00224FF00F
:105180000111F86800F0C2F80346002B0DD0FB684F
:105190001B681B6803F48073B3F5807F03D1FB6841
:1051A0004FF400721A640323AAE07B89DBB21A462B
:1051B000FB681B6802F0FE021A617B6A3A6A524978
:1051C000F86800F0FAF80346002B01D0012397E0BD
:1051D00000237B61FB681B685B697B61FB681B6864
:1051E0009B697B617B697A6A396AF86800F064F9C7
:1051F0000346002B0DD0FB681B6C042B07D1FB680A
:105200001B681A68FB681B6842F400721A6001236D
:1052100076E0FB88012B05D13B89DAB2FB681B687D
:105220001A6121E03B891B0A9BB2DAB2FB681B685A
:105230001A617A6A396AF86800F03EF90346002B71
:105240000DD0FB681B6C042B07D1FB681B681A6828
:10525000FB681B6842F400721A60012350E03B892E
:10526000DAB2FB681B681A617A6A396AF86800F07A
:1052700023F90346002B0DD0FB681B6C042B07D1D0
:10528000FB681B681A68FB681B6842F400721A60AE
:10529000012335E0FB681B681A68FB681B6842F451
:1052A00080721A607B6A00933B6A00224FF0011102
:1052B000F86800F02BF80346002B0DD0FB681B6844
:1052C0001B6803F48073B3F5807F03D1FB684FF450
:1052D00000721A64032313E07B89DBB243F00103FD
:1052E000DAB2FB681B681A617B6A3A6A0649F86899
:1052F00000F063F80346002B01D0012300E00023F7
:1053000018461837BD4680BD0200010080B584B044
:1053100000AFF860B9603B601346FB7125E03B6865
:10532000B3F1FF3F21D0FDF7E5FB0246BB69D31A7D
:105330003A689A4202D33B68002B16D1FB680022E0
:105340001A63FB68202283F83D20FB68002283F863
:105350003E20FB681B6C43F02002FB681A64FB686C
:10536000002283F83C20012323E0BB681B0CDBB246
:10537000012B0DD1FB681B685B69DA43BB681340E6
:105380009BB2002B0CBF01230023DBB21A460CE0BA
:10539000FB681B689B69DA43BB6813409BB2002B18
:1053A0000CBF01230023DBB21A46FB799A42B6D028
:1053B000002318461037BD4680BD80B584B000AFCD
:1053C000F860B9607A603B6051E0FB681B685B691C
:1053D00003F48063B3F5806F23D1FB681B681A6800
:1053E000FB681B6842F400721A60FB681B686FF46C
:1053F00080625A61FB6800221A63FB68202283F8EE
:105400003D20FB68002283F83E20FB681B6C43F0C4
:105410000402FB681A64FB68002283F83C20012325
:1054200046E07B68B3F1FF3F21D0FDF763FB024606
:105430003B68D31A7A689A4202D37B68002B16D154
:10544000FB6800221A63FB68202283F83D20FB687A
:10545000002283F83E20FB681B6C43F02002FB68AF
:105460001A64FB68002283F83C20012320E0BB681B
:105470001B0CDBB2012B0CD1FB681B685B69DA43A8
:10548000BB6813409BB2002B14BF01230023DBB287
:105490000BE0FB681B689B69DA43BB6813409BB257
:1054A000002B14BF01230023DBB2002B8DD100237E
:1054B00018461037BD4680BD80B584B000AFF86097
:1054C000B9607A602DE0F86800F0CEF80346002B52
:1054D00001D001232DE0BB68B3F1FF3F21D0FDF7E0
:1054E00009FB02467B68D31ABA689A4202D3BB68AA
:1054F000002B16D1FB6800221A63FB68202283F878
:105500003D20FB68002283F83E20FB681B6C43F0C3
:105510002002FB681A64FB68002283F83C20012308
:1055200007E0FB681B685B6903F08003802BCAD12E
:10553000002318461037BD4680BD80B584B000AF4B
:10554000F860B9607A602DE0F86800F08DF80346E5
:10555000002B01D001232DE0BB68B3F1FF3F21D028
:10556000FDF7C8FA02467B68D31ABA689A4202D39A
:10557000BB68002B16D1FB6800221A63FB6820224F
:1055800083F83D20FB68002283F83E20FB681B6CFB
:1055900043F02002FB681A64FB68002283F83C2079
:1055A000012307E0FB681B685B6903F00403042B1D
:1055B000CAD1002318461037BD4680BD80B584B0DF
:1055C00000AFF860B9607A6042E0FB681B685B6915
:1055D00003F01003102B19D1FB681B686FF0100249
:1055E0005A61FB6800221A63FB68202283F83D2081
:1055F000FB68002283F83E20FB681A6CFB681A6483
:10560000FB68002283F83C20012329E0FDF772FAB1
:1056100002467B68D31ABA689A4202D3BB68002B51
:1056200016D1FB6800221A63FB68202283F83D2014
:10563000FB68002283F83E20FB681B6C43F02002CD
:10564000FB681A64FB68002283F83C20012307E012
:10565000FB681B685B6903F04003402BB5D1002356
:1056600018461037BD4680BD80B483B000AF786067
:105670007B681B685B6903F48063B3F5806F1BD1A3
:105680007B681B686FF480625A617B6800221A6332
:105690007B68202283F83D207B68002283F83E202F
:1056A0007B681B6C43F004027B681A647B680022F1
:1056B00083F83C20012300E0002318460C37BD4648
:1056C0005DF8047B7047000080B485B000AF78605F
:1056D0007B6803F00703FB600C4BDB68BB60BA68B8
:1056E0004FF6FF031340BB60FB681A02BB6813430D
:1056F00043F0BF6343F40033BB60044ABB68D3602C
:1057000000BF1437BD465DF8047B704700ED00E034
:1057100080B400AF044BDB681B0A03F00703184694
:10572000BD465DF8047B704700ED00E080B483B0B7
:1057300000AF0346FB7197F90730002B0BDBFB79B9
:1057400003F01F02074997F907305B09012000FAAF
:1057500002F241F8232000BF0C37BD465DF8047B00
:10576000704700BF00E100E080B483B000AF0346A3
:105770003960FB7197F90730002B0ADB3B68DAB21E
:105780000C4997F907301201D2B20B4483F8002379
:105790000AE03B68DAB20849FB7903F00F03043BE7
:1057A0001201D2B20B441A7600BF0C37BD465DF829
:1057B000047B704700E100E000ED00E080B489B0B8
:1057C00000AFF860B9607A60FB6803F00703FB6123
:1057D000FB69C3F10703042B28BF0423BB61FB69EA
:1057E0000433062B02D9FB69033B00E000237B61F5
:1057F0004FF0FF32BB6902FA03F3DA43BB681A4089
:105800007B699A404FF0FF317B6901FA03F3D9437A
:105810007B680B40134318462437BD465DF8047B74
:10582000704780B582B000AF78607868FFF74CFFB2
:1058300000BF0837BD4680BD80B586B000AF0346C7
:10584000B9607A60FB7300237B61FFF761FF7861C9
:105850007A68B9687869FFF7B1FF024697F90F30A7
:1058600011461846FFF780FF00BF1837BD4680BDC0
:1058700080B582B000AF0346FB7197F90730184638
:10588000FFF754FF00BF0837BD4680BD80B584B028
:1058900000AF786039607B68002B01D10123CCE038
:1058A000684B1B6803F00F033A689A420CD9654BAA
:1058B0003A68D2B21A70634B1B6803F00F033A6860
:1058C0009A4201D00123B8E07B681B6803F0020311
:1058D000002B20D07B681B6803F00403002B05D04D
:1058E000594B9B68584A43F4E05393607B681B68AC
:1058F00003F00803002B05D0534B9B68524A43F436
:1059000060439360504B9B6823F0F0027B689B6878
:105910004D4913438B607B681B6803F00103002B28
:1059200044D07B685B68012B07D1474B1B6803F4AD
:105930000033002B19D101237FE07B685B68022BC9
:1059400003D07B685B68032B07D13F4B1B6803F0D8
:105950000073002B09D101236FE03B4B1B6803F060
:105960000203002B01D1012367E0374B9B6823F032
:1059700003027B685B68344913438B60FDF7BAF818
:10598000F8600AE0FDF7B6F80246FB68D31A41F268
:105990008832934201D903234FE02B4B9B6803F0DD
:1059A0000C027B685B689B009A42EBD1254B1B681D
:1059B00003F00F033A689A420CD2224B3A68D2B2F3
:1059C0001A70204B1B6803F00F033A689A4201D00B
:1059D000012332E07B681B6803F00403002B08D02E
:1059E000194B9B6823F4E0527B68DB68164913432C
:1059F0008B607B681B6803F00803002B09D0124BF7
:105A00009B6823F460427B681B69DB000E491343EB
:105A10008B6000F021F802460B4B9B681B0903F0DA
:105A20000F030A49CB5C22FA03F3094A1360094BBE
:105A30001B681846FDF76EFF002318461037BD4659
:105A400080BD00BF003C024000380240149B0008AB
:105A5000A800002064000020B0B584B000AF002191
:105A600079600021F960002139600021B960524954
:105A7000896801F00C0108290DD0082900F29480F2
:105A8000002902D0042903D08EE04C4BBB608EE08D
:105A90004B4BBB608BE04849496801F03F0179609E
:105AA0004549496801F48001002924D042494968E8
:105AB000890908464FF0000140F2FF144FF000053D
:105AC00000EA040201EA05033D4901FB03F000215D
:105AD00001FB02F144183A49A2FB0101631819467F
:105AE0007B681A464FF00003FAF7DEFC02460B46CD
:105AF0001346FB604AE0304B5B689B091A464FF047
:105B0000000340F2FF104FF0000102EA000403EA34
